:0800030012050812058980FBBB
:10000E003031323334353637383941424344454640
:0905700041003E0042003C000085
:1004C800E4FDFCC3ED9FEC9E5015E4FBFA0BBB006A
:0F04D800010AEB64734A70F50DBD00010C80E45E
:0104E70022F2
:05047900900019EFF0F6
:10047E00781A7C007D017BFF7A00790E7E007F105A
:10048E001200F6900019E0241AF582E43400F58388
:02049E00E0FF7D
:0104A0002239
:05031C00900012EDF05D
:10032100A3743CF0A3EFF0ED54F0C4540FFF12049A
:1003310079900015EFF0900012E0540FFF1204794C
:10034100900016EFF0A3743EF0E4A3F07B017A0075
:05035100791302038C8A
:1002D50090003DE004F0700690003CE004F0D390FF
:1002E500003DE0943290003CE094004029E4F0A306
:1002F500F090003FE0FF1204E8AD077F4D12031CAC
:100305007F0A7E001204C8900040E0FF120563AD2D
:06031500077F5312031CD8
:01031B0022BF
:1004210012011C24CF600D14601124027016E49097
:10043100003F800C90003F7401800590003F7402E2
:0C044100F0FD80027D017F5012031C22A0
:10044D0012011C24CF600D14601124027016E4906B
:10045D000040800C900040740180059000407402B3
:0C046D00F0FD80027D017F4412031C2280
:1003F20012026C78007C007D017E007F121200F6F2
:10040200900000E024BC600D24F470127B017A009D
:0E04120079010204217B017A00790112044D68
:0104200022B9
:100508001204A1E490003FF0A304F0E4FD7F501230
:09051800031C7D017F4402031C59
:060589001203F20202D58C
:10052100EF14600A14600A240270098D80228D90F4
:09053100228DA022AF058F80226B
:07053A00AE07120521AF0618
:10054100EF1460081460082402AF8022AF9022AF3C
:02055100A022E6
:1004E8007D0F12053AEF540FFCAF067DF012053C64
:0F04F800EF54F0FBAF067DFF120521EB4CF4FF34
:0105070022D1
:0D0563007DFF12053AEF540FF4540FFF22F4
:1004A10075985075CDFF75CCFD75CBFF75CAFDD222
:1004B100CCD2CDC2C9C2CBD2CAD2ACD2AFE49000A9
:0704C1003BF090003AF0222D
:08057A002000FDD2008F992240
:10038C00900019EBF0A3EAF0A3E9F0900019E0FB60
:10039C00A3E0FAA3E0F912011C6017900019A3E482
:1003AC0075F001120135A9F0FA12011CFF12057A41
:0303BC0080D922C3
:10026C0090003BE06401704F90002BE0900012F086
:10027C00E4FFFE90003AE0FD24FEFBE434FFFAC3F9
:10028C00EF9BEA6480F8EE648098501F742C2FF575
:10029C008274003EF583E0FC74132FF58274003EEB
:1002AC00F583ECF00FBF00010E80C8900023EDF039
:1002BC00E490003BF0800BE4900023F0900012746B
:0802CC00FFF07B017A007912BA
:0102D4002207
:10035600AF9990003BE0702DEFFD7C00643E70038A
:1003660004F022ED643C4C700490003AF090003AA0
:10037600E0FE242AF582E43400F583EFF0EE04541F
:050386003F90003AF079
:01038B00224F
:030023000203BF16
:1003BF00C0E0C083C082C0D075D000C004C005C0EB
:1003CF0006C007309805C298120356309904C29997
:1003DF00C200D007D006D005D004D0D0D082D083B1
:0303EF00D0E03229
:10055300758901C28CD2A9758CDB758AFFD28C2276
:070582007B017A007945229C
:03000B000201E30C
:1001E300C0E0C0F0C083C082C0D075D000C000C0E2
:1001F30001C002C004C005C006C007758CDB758A48
:10020300FF900045E0FCA3E0FDA3E0FEA3E0FFE4D4
:10021300FAF9F8EF2401FFEA3EFEE93DFDE83CFC74
:1002230090004512014B900049E004F0E0646470D3
:100233001FF0A3E004F0E0643C7015F0A3E004F0C9
:10024300E0643C700BF0A3E004F0E064187001F08C
:10025300D007D006D005D004D002D001D000D0D032
:09026300D082D083D0F0D0E0324B
:03000000020157A3
:0C015700787FE4F6D8FD75812002019E3F
:10016300020003E493A3F8E493A34003F68001F2AF
:1001730008DFF48029E493A3F85407240CC8C3339D
:10018300C4540F4420C8834004F456800146F6DF6C
:10019300E4800B0102040810204080900570E47E87
:1001A300019360BCA3FF543F30E509541FFEE49361
:1001B300A360010ECF54C025E060A840B8E493A328
:1001C300FAE493A3F8E493A3C8C582C8CAC583CA53
:1001D300F0A3C8C582C8CAC583CADFE9DEE780BE0B
:010579000081
:10002600E709F608DFFA8046E709F208DFFA803EBC
:1000360088828C83E709F0A3DFFA8032E309F608A9
:10004600DFFA8078E309F208DFFA807088828C8311
:10005600E309F0A3DFFA806489828A83E0A3F608C5
:10006600DFFA805889828A83E0A3F208DFFA804C9F
:1000760080D280FA80C680D4806980F28033801076
:1000860080A680EA809A80A880DA80E280CA8033DF
:1000960089828A83ECFAE493A3C8C582C8CCC58357
:1000A600CCF0A3C8C582C8CCC583CCDFE9DEE78027
:1000B6000D89828A83E493A3F608DFF9ECFAA9F0A6
:1000C600EDFB2289828A83ECFAE0A3C8C582C8CCFC
:1000D600C583CCF0A3C8C582C8CCC583CCDFEADE15
:1000E600E880DB89828A83E493A3F208DFF980CC77
:1000F60088F0EF60010E4E60C388F0ED2402B40470
:100106000050B9F582EB2402B4040050AF23234516
:06011600822390007673C5
:10011C00BB010689828A83E0225002E722BBFE02E1
:09012C00E32289828A83E4932214
:10013500A3F8E0C5F025F0F0E5821582700215837D
:06014500E0C838F0E822DA
:0C014B00ECF0A3EDF0A3EEF0A3EFF02227
:00000001FF
